{
  "contractName": "GiveNTake",
  "abi": [
    {
      "inputs": [],
      "payable": false,
      "stateMutability": "nonpayable",
      "type": "constructor"
    },
    {
      "anonymous": false,
      "inputs": [
        {
          "indexed": false,
          "internalType": "uint256",
          "name": "id",
          "type": "uint256"
        },
        {
          "indexed": false,
          "internalType": "string",
          "name": "headline",
          "type": "string"
        },
        {
          "indexed": false,
          "internalType": "string",
          "name": "content",
          "type": "string"
        },
        {
          "indexed": false,
          "internalType": "uint256",
          "name": "price",
          "type": "uint256"
        },
        {
          "indexed": false,
          "internalType": "address payable",
          "name": "owner",
          "type": "address"
        }
      ],
      "name": "CardBought",
      "type": "event"
    },
    {
      "anonymous": false,
      "inputs": [
        {
          "indexed": false,
          "internalType": "uint256",
          "name": "id",
          "type": "uint256"
        },
        {
          "indexed": false,
          "internalType": "string",
          "name": "headline",
          "type": "string"
        },
        {
          "indexed": false,
          "internalType": "string",
          "name": "content",
          "type": "string"
        },
        {
          "indexed": false,
          "internalType": "uint256",
          "name": "price",
          "type": "uint256"
        },
        {
          "indexed": false,
          "internalType": "address payable",
          "name": "owner",
          "type": "address"
        },
        {
          "indexed": false,
          "internalType": "uint256",
          "name": "isActive",
          "type": "uint256"
        },
        {
          "indexed": false,
          "internalType": "string",
          "name": "imageHash",
          "type": "string"
        }
      ],
      "name": "CardCreated",
      "type": "event"
    },
    {
      "anonymous": false,
      "inputs": [
        {
          "indexed": false,
          "internalType": "uint256",
          "name": "cardId",
          "type": "uint256"
        },
        {
          "indexed": false,
          "internalType": "uint256",
          "name": "newPrice",
          "type": "uint256"
        }
      ],
      "name": "PriceChanged",
      "type": "event"
    },
    {
      "anonymous": false,
      "inputs": [
        {
          "indexed": false,
          "internalType": "uint256",
          "name": "id",
          "type": "uint256"
        },
        {
          "indexed": false,
          "internalType": "string",
          "name": "name",
          "type": "string"
        },
        {
          "indexed": false,
          "internalType": "address",
          "name": "owner",
          "type": "address"
        }
      ],
      "name": "UserAdded",
      "type": "event"
    },
    {
      "anonymous": false,
      "inputs": [
        {
          "indexed": false,
          "internalType": "address",
          "name": "userAddress",
          "type": "address"
        },
        {
          "indexed": false,
          "internalType": "string",
          "name": "name",
          "type": "string"
        },
        {
          "indexed": false,
          "internalType": "uint256",
          "name": "rate",
          "type": "uint256"
        }
      ],
      "name": "UserRated",
      "type": "event"
    },
    {
      "constant": true,
      "inputs": [
        {
          "internalType": "uint256",
          "name": "",
          "type": "uint256"
        }
      ],
      "name": "cards",
      "outputs": [
        {
          "internalType": "uint256",
          "name": "id",
          "type": "uint256"
        },
        {
          "internalType": "string",
          "name": "headline",
          "type": "string"
        },
        {
          "internalType": "string",
          "name": "content",
          "type": "string"
        },
        {
          "internalType": "uint256",
          "name": "price",
          "type": "uint256"
        },
        {
          "internalType": "address payable",
          "name": "owner",
          "type": "address"
        },
        {
          "internalType": "uint256",
          "name": "minAge",
          "type": "uint256"
        },
        {
          "internalType": "uint256",
          "name": "ownerRate",
          "type": "uint256"
        },
        {
          "internalType": "uint256",
          "name": "isActive",
          "type": "uint256"
        },
        {
          "internalType": "string",
          "name": "imageHash",
          "type": "string"
        }
      ],
      "payable": false,
      "stateMutability": "view",
      "type": "function"
    },
    {
      "constant": true,
      "inputs": [],
      "name": "cardsCount",
      "outputs": [
        {
          "internalType": "uint256",
          "name": "",
          "type": "uint256"
        }
      ],
      "payable": false,
      "stateMutability": "view",
      "type": "function"
    },
    {
      "constant": true,
      "inputs": [
        {
          "internalType": "uint256",
          "name": "",
          "type": "uint256"
        }
      ],
      "name": "transactions",
      "outputs": [
        {
          "components": [
            {
              "internalType": "uint256",
              "name": "id",
              "type": "uint256"
            },
            {
              "internalType": "string",
              "name": "name",
              "type": "string"
            },
            {
              "internalType": "uint256",
              "name": "age",
              "type": "uint256"
            },
            {
              "internalType": "uint256",
              "name": "rate",
              "type": "uint256"
            },
            {
              "internalType": "address",
              "name": "owner",
              "type": "address"
            },
            {
              "internalType": "uint256",
              "name": "cardAmount",
              "type": "uint256"
            },
            {
              "internalType": "uint256",
              "name": "ratingCount",
              "type": "uint256"
            }
          ],
          "internalType": "struct GiveNTake.User",
          "name": "buyer",
          "type": "tuple"
        },
        {
          "components": [
            {
              "internalType": "uint256",
              "name": "id",
              "type": "uint256"
            },
            {
              "internalType": "string",
              "name": "headline",
              "type": "string"
            },
            {
              "internalType": "string",
              "name": "content",
              "type": "string"
            },
            {
              "internalType": "uint256",
              "name": "price",
              "type": "uint256"
            },
            {
              "internalType": "address payable",
              "name": "owner",
              "type": "address"
            },
            {
              "internalType": "uint256",
              "name": "minAge",
              "type": "uint256"
            },
            {
              "internalType": "uint256",
              "name": "ownerRate",
              "type": "uint256"
            },
            {
              "internalType": "uint256",
              "name": "isActive",
              "type": "uint256"
            },
            {
              "internalType": "string",
              "name": "imageHash",
              "type": "string"
            }
          ],
          "internalType": "struct GiveNTake.Card",
          "name": "card",
          "type": "tuple"
        }
      ],
      "payable": false,
      "stateMutability": "view",
      "type": "function"
    },
    {
      "constant": true,
      "inputs": [],
      "name": "transactionsCount",
      "outputs": [
        {
          "internalType": "uint256",
          "name": "",
          "type": "uint256"
        }
      ],
      "payable": false,
      "stateMutability": "view",
      "type": "function"
    },
    {
      "constant": true,
      "inputs": [
        {
          "internalType": "uint256",
          "name": "",
          "type": "uint256"
        }
      ],
      "name": "users",
      "outputs": [
        {
          "internalType": "uint256",
          "name": "id",
          "type": "uint256"
        },
        {
          "internalType": "string",
          "name": "name",
          "type": "string"
        },
        {
          "internalType": "uint256",
          "name": "age",
          "type": "uint256"
        },
        {
          "internalType": "uint256",
          "name": "rate",
          "type": "uint256"
        },
        {
          "internalType": "address",
          "name": "owner",
          "type": "address"
        },
        {
          "internalType": "uint256",
          "name": "cardAmount",
          "type": "uint256"
        },
        {
          "internalType": "uint256",
          "name": "ratingCount",
          "type": "uint256"
        }
      ],
      "payable": false,
      "stateMutability": "view",
      "type": "function"
    },
    {
      "constant": true,
      "inputs": [
        {
          "internalType": "address",
          "name": "",
          "type": "address"
        }
      ],
      "name": "usersByAddress",
      "outputs": [
        {
          "internalType": "uint256",
          "name": "id",
          "type": "uint256"
        },
        {
          "internalType": "string",
          "name": "name",
          "type": "string"
        },
        {
          "internalType": "uint256",
          "name": "age",
          "type": "uint256"
        },
        {
          "internalType": "uint256",
          "name": "rate",
          "type": "uint256"
        },
        {
          "internalType": "address",
          "name": "owner",
          "type": "address"
        },
        {
          "internalType": "uint256",
          "name": "cardAmount",
          "type": "uint256"
        },
        {
          "internalType": "uint256",
          "name": "ratingCount",
          "type": "uint256"
        }
      ],
      "payable": false,
      "stateMutability": "view",
      "type": "function"
    },
    {
      "constant": true,
      "inputs": [],
      "name": "usersCount",
      "outputs": [
        {
          "internalType": "uint256",
          "name": "",
          "type": "uint256"
        }
      ],
      "payable": false,
      "stateMutability": "view",
      "type": "function"
    },
    {
      "constant": false,
      "inputs": [
        {
          "internalType": "string",
          "name": "_name",
          "type": "string"
        },
        {
          "internalType": "uint256",
          "name": "age",
          "type": "uint256"
        }
      ],
      "name": "addUser",
      "outputs": [],
      "payable": false,
      "stateMutability": "nonpayable",
      "type": "function"
    },
    {
      "constant": false,
      "inputs": [
        {
          "internalType": "string",
          "name": "_headline",
          "type": "string"
        },
        {
          "internalType": "string",
          "name": "_content",
          "type": "string"
        },
        {
          "internalType": "uint256",
          "name": "minAge",
          "type": "uint256"
        },
        {
          "internalType": "uint256",
          "name": "_price",
          "type": "uint256"
        },
        {
          "internalType": "string",
          "name": "_hash",
          "type": "string"
        }
      ],
      "name": "postOffer",
      "outputs": [],
      "payable": false,
      "stateMutability": "nonpayable",
      "type": "function"
    },
    {
      "constant": false,
      "inputs": [
        {
          "internalType": "uint256",
          "name": "_cardId",
          "type": "uint256"
        }
      ],
      "name": "buyOffer",
      "outputs": [],
      "payable": true,
      "stateMutability": "payable",
      "type": "function"
    },
    {
      "constant": false,
      "inputs": [
        {
          "internalType": "address",
          "name": "_sellerAddress",
          "type": "address"
        }
      ],
      "name": "rateSeller",
      "outputs": [],
      "payable": false,
      "stateMutability": "nonpayable",
      "type": "function"
    },
    {
      "constant": false,
      "inputs": [
        {
          "internalType": "uint256",
          "name": "cardId",
          "type": "uint256"
        },
        {
          "internalType": "uint256",
          "name": "newPrice",
          "type": "uint256"
        }
      ],
      "name": "changePrice",
      "outputs": [],
      "payable": false,
      "stateMutability": "nonpayable",
      "type": "function"
    },
    {
      "constant": false,
      "inputs": [
        {
          "internalType": "uint256",
          "name": "id",
          "type": "uint256"
        }
      ],
      "name": "deleteCard",
      "outputs": [],
      "payable": false,
      "stateMutability": "nonpayable",
      "type": "function"
    }
  ],
  "bytecode": "0x6080604052600080556000600155600060025534801561001e57600080fd5b50612e378061002e6000396000f3fe6080604052600436106100c25760003560e01c80636bf693c41161007f5780639ecce700116100595780639ecce7001461029f578063b3de019c146102bb578063bd6c6756146102e4578063fd99a7461461030f576100c2565b80636bf693c4146101d95780638dc107681461021c5780639ace38c214610261576100c2565b8063047b3ea4146100c757806309f5d7ac146100f05780631c5220c214610119578063365b98b2146101425780635e1acf65146101855780636ba13a82146101ae575b600080fd5b3480156100d357600080fd5b506100ee60048036036100e9919081019061254e565b61033a565b005b3480156100fc57600080fd5b5061011760048036036101129190810190612525565b6107e3565b005b34801561012557600080fd5b50610140600480360361013b919081019061260d565b610ebf565b005b34801561014e57600080fd5b5061016960048036036101649190810190612661565b611123565b60405161017c9796959493929190612bad565b60405180910390f35b34801561019157600080fd5b506101ac60048036036101a79190810190612661565b61121d565b005b3480156101ba57600080fd5b506101c36112ea565b6040516101d091906129cd565b60405180910390f35b3480156101e557600080fd5b5061020060048036036101fb9190810190612525565b6112f0565b6040516102139796959493929190612bad565b60405180910390f35b34801561022857600080fd5b50610243600480360361023e9190810190612661565b6113ea565b60405161025899989796959493929190612b0b565b60405180910390f35b34801561026d57600080fd5b5061028860048036036102839190810190612661565b611620565b604051610296929190612996565b60405180910390f35b6102b960048036036102b49190810190612661565b6119f1565b005b3480156102c757600080fd5b506102e260048036036102dd919081019061268a565b61221a565b005b3480156102f057600080fd5b506102f9612272565b60405161030691906129cd565b60405180910390f35b34801561031b57600080fd5b50610324612278565b60405161033191906129cd565b60405180910390f35b60016000815480929190600101919050555061035461227e565b600660003373ffffffffffffffffffffffffffffffffffffffff1673ffffffffffffffffffffffffffffffffffffffff1681526020019081526020016000206040518060e001604052908160008201548152602001600182018054600181600116156101000203166002900480601f0160208091040260200160405190810160405280929190818152602001828054600181600116156101000203166002900480156104415780601f1061041657610100808354040283529160200191610441565b820191906000526020600020905b81548152906001019060200180831161042457829003601f168201915b5050505050815260200160028201548152602001600382015481526020016004820160009054906101000a900473ffffffffffffffffffffffffffffffffffffffff1673ffffffffffffffffffffffffffffffffffffffff1673ffffffffffffffffffffffffffffffffffffffff16815260200160058201548152602001600682015481525050905060008160600151905060405180610120016040528060015481526020018881526020018781526020018581526020013373ffffffffffffffffffffffffffffffffffffffff16815260200186815260200182815260200160018152602001848152506005600060015481526020019081526020016000206000820151816000015560208201518160010190805190602001906105679291906122d1565b5060408201518160020190805190602001906105849291906122d1565b506060820151816003015560808201518160040160006101000a81548173ffffffffffffffffffffffffffffffffffffffff021916908373ffffffffffffffffffffffffffffffffffffffff16021790555060a0820151816005015560c0820151816006015560e082015181600701556101008201518160080190805190602001906106119291906122d1565b5090505061061d61227e565b600660003373ffffffffffffffffffffffffffffffffffffffff1673ffffffffffffffffffffffffffffffffffffffff1681526020019081526020016000206040518060e001604052908160008201548152602001600182018054600181600116156101000203166002900480601f01602080910402602001604051908101604052809291908181526020018280546001816001161561010002031660029004801561070a5780601f106106df5761010080835404028352916020019161070a565b820191906000526020600020905b8154815290600101906020018083116106ed57829003601f168201915b5050505050815260200160028201548152602001600382015481526020016004820160009054906101000a900473ffffffffffffffffffffffffffffffffffffffff1673ffffffffffffffffffffffffffffffffffffffff1673ffffffffffffffffffffffffffffffffffffffff1681526020016005820154815260200160068201548152505090507fd02256730b296fdff491188d59e8d94522ef26c26f44b736da55a478c80504d16001548989883360018a6040516107d19796959493929190612a26565b60405180910390a15050505050505050565b600660008273ffffffffffffffffffffffffffffffffffffffff1673ffffffffffffffffffffffffffffffffffffffff1681526020019081526020016000206003016000815480929190600101919050555061083d61227e565b600660008373ffffffffffffffffffffffffffffffffffffffff1673ffffffffffffffffffffffffffffffffffffffff1681526020019081526020016000206040518060e001604052908160008201548152602001600182018054600181600116156101000203166002900480601f01602080910402602001604051908101604052809291908181526020018280546001816001161561010002031660029004801561092a5780601f106108ff5761010080835404028352916020019161092a565b820191906000526020600020905b81548152906001019060200180831161090d57829003601f168201915b5050505050815260200160028201548152602001600382015481526020016004820160009054906101000a900473ffffffffffffffffffffffffffffffffffffffff1673ffffffffffffffffffffffffffffffffffffffff1673ffffffffffffffffffffffffffffffffffffffff16815260200160058201548152602001600682015481525050905060046000826000015181526020019081526020016000206003016000815480929190600101919050555060008090506109ea61227e565b600660003373ffffffffffffffffffffffffffffffffffffffff1673ffffffffffffffffffffffffffffffffffffffff1681526020019081526020016000206040518060e001604052908160008201548152602001600182018054600181600116156101000203166002900480601f016020809104026020016040519081016040528092919081815260200182805460018160011615610100020316600290048015610ad75780601f10610aac57610100808354040283529160200191610ad7565b820191906000526020600020905b815481529060010190602001808311610aba57829003601f168201915b5050505050815260200160028201548152602001600382015481526020016004820160009054906101000a900473ffffffffffffffffffffffffffffffffffffffff1673ffffffffffffffffffffffffffffffffffffffff1673ffffffffffffffffffffffffffffffffffffffff168152602001600582015481526020016006820154815250509050600060038260c0015181610b7057fe5b061415610b8c5780606001805180919060010181525050600191505b8060c00180518091906001018152505080600660003373ffffffffffffffffffffffffffffffffffffffff1673ffffffffffffffffffffffffffffffffffffffff168152602001908152602001600020600082015181600001556020820151816001019080519060200190610c029291906122d1565b50604082015181600201556060820151816003015560808201518160040160006101000a81548173ffffffffffffffffffffffffffffffffffffffff021916908373ffffffffffffffffffffffffffffffffffffffff16021790555060a0820151816005015560c08201518160060155905050806004600083600001518152602001908152602001600020600082015181600001556020820151816001019080519060200190610cb39291906122d1565b50604082015181600201556060820151816003015560808201518160040160006101000a81548173ffffffffffffffffffffffffffffffffffffffff021916908373ffffffffffffffffffffffffffffffffffffffff16021790555060a0820151816005015560c08201518160060155905050600060019050600190505b6001548111610e75578473ffffffffffffffffffffffffffffffffffffffff166005600083815260200190815260200160002060040160009054906101000a900473ffffffffffffffffffffffffffffffffffffffff1673ffffffffffffffffffffffffffffffffffffffff161415610dcb5760056000828152602001908152602001600020600601600081548092919060010191905055505b600183148015610e3c57503373ffffffffffffffffffffffffffffffffffffffff166005600083815260200190815260200160002060040160009054906101000a900473ffffffffffffffffffffffffffffffffffffffff1673ffffffffffffffffffffffffffffffffffffffff16145b15610e685760056000828152602001908152602001600020600601600081548092919060010191905055505b8080600101915050610d31565b7f490c23cb4472f593b5661d96d329f01d41ad2871e497b5be0418996229971bf58585602001518660600151604051610eb093929190612958565b60405180910390a15050505050565b60008081548092919060010191905055506040518060e001604052806000548152602001838152602001828152602001600081526020013373ffffffffffffffffffffffffffffffffffffffff1681526020016000815260200160018152506004600080548152602001908152602001600020600082015181600001556020820151816001019080519060200190610f589291906122d1565b50604082015181600201556060820151816003015560808201518160040160006101000a81548173ffffffffffffffffffffffffffffffffffffffff021916908373ffffffffffffffffffffffffffffffffffffffff16021790555060a0820151816005015560c082015181600601559050506004600080548152602001908152602001600020600660003373ffffffffffffffffffffffffffffffffffffffff1673ffffffffffffffffffffffffffffffffffffffff168152602001908152602001600020600082015481600001556001820181600101908054600181600116156101000203166002900461104f929190612351565b5060028201548160020155600382015481600301556004820160009054906101000a900473ffffffffffffffffffffffffffffffffffffffff168160040160006101000a81548173ffffffffffffffffffffffffffffffffffffffff021916908373ffffffffffffffffffffffffffffffffffffffff16021790555060058201548160050155600682015481600601559050507f514af2a82370fd69109ef67206736f3880c4f9c15d2f2acd798b782ae37fdc5a6000548333604051611117939291906129e8565b60405180910390a15050565b6004602052806000526040600020600091509050806000015490806001018054600181600116156101000203166002900480601f0160208091040260200160405190810160405280929190818152602001828054600181600116156101000203166002900480156111d55780601f106111aa576101008083540402835291602001916111d5565b820191906000526020600020905b8154815290600101906020018083116111b857829003601f168201915b5050505050908060020154908060030154908060040160009054906101000a900473ffffffffffffffffffffffffffffffffffffffff16908060050154908060060154905087565b6000600560008381526020019081526020016000209050600081600701819055506005600083815260200190815260200160002060008082016000905560018201600061126a91906123d8565b60028201600061127a91906123d8565b60038201600090556004820160006101000a81549073ffffffffffffffffffffffffffffffffffffffff02191690556005820160009055600682016000905560078201600090556008820160006112d191906123d8565b5050600160008154809291906001900391905055505050565b60005481565b6006602052806000526040600020600091509050806000015490806001018054600181600116156101000203166002900480601f0160208091040260200160405190810160405280929190818152602001828054600181600116156101000203166002900480156113a25780601f10611377576101008083540402835291602001916113a2565b820191906000526020600020905b81548152906001019060200180831161138557829003601f168201915b5050505050908060020154908060030154908060040160009054906101000a900473ffffffffffffffffffffffffffffffffffffffff16908060050154908060060154905087565b6005602052806000526040600020600091509050806000015490806001018054600181600116156101000203166002900480601f01602080910402602001604051908101604052809291908181526020018280546001816001161561010002031660029004801561149c5780601f106114715761010080835404028352916020019161149c565b820191906000526020600020905b81548152906001019060200180831161147f57829003601f168201915b505050505090806002018054600181600116156101000203166002900480601f01602080910402602001604051908101604052809291908181526020018280546001816001161561010002031660029004801561153a5780601f1061150f5761010080835404028352916020019161153a565b820191906000526020600020905b81548152906001019060200180831161151d57829003601f168201915b5050505050908060030154908060040160009054906101000a900473ffffffffffffffffffffffffffffffffffffffff1690806005015490806006015490806007015490806008018054600181600116156101000203166002900480601f0160208091040260200160405190810160405280929190818152602001828054600181600116156101000203166002900480156116165780601f106115eb57610100808354040283529160200191611616565b820191906000526020600020905b8154815290600101906020018083116115f957829003601f168201915b5050505050905089565b6003602052806000526040600020600091509050806000016040518060e001604052908160008201548152602001600182018054600181600116156101000203166002900480601f0160208091040260200160405190810160405280929190818152602001828054600181600116156101000203166002900480156116e65780601f106116bb576101008083540402835291602001916116e6565b820191906000526020600020905b8154815290600101906020018083116116c957829003601f168201915b5050505050815260200160028201548152602001600382015481526020016004820160009054906101000a900473ffffffffffffffffffffffffffffffffffffffff1673ffffffffffffffffffffffffffffffffffffffff1673ffffffffffffffffffffffffffffffffffffffff1681526020016005820154815260200160068201548152505090806007016040518061012001604052908160008201548152602001600182018054600181600116156101000203166002900480601f0160208091040260200160405190810160405280929190818152602001828054600181600116156101000203166002900480156118215780601f106117f657610100808354040283529160200191611821565b820191906000526020600020905b81548152906001019060200180831161180457829003601f168201915b50505050508152602001600282018054600181600116156101000203166002900480601f0160208091040260200160405190810160405280929190818152602001828054600181600116156101000203166002900480156118c35780601f10611898576101008083540402835291602001916118c3565b820191906000526020600020905b8154815290600101906020018083116118a657829003601f168201915b50505050508152602001600382015481526020016004820160009054906101000a900473ffffffffffffffffffffffffffffffffffffffff1673ffffffffffffffffffffffffffffffffffffffff1673ffffffffffffffffffffffffffffffffffffffff168152602001600582015481526020016006820154815260200160078201548152602001600882018054600181600116156101000203166002900480601f0160208091040260200160405190810160405280929190818152602001828054600181600116156101000203166002900480156119e35780601f106119b8576101008083540402835291602001916119e3565b820191906000526020600020905b8154815290600101906020018083116119c657829003601f168201915b505050505081525050905082565b600081118015611a0357506001548111155b611a0c57600080fd5b611a14612420565b600560008381526020019081526020016000206040518061012001604052908160008201548152602001600182018054600181600116156101000203166002900480601f016020809104026020016040519081016040528092919081815260200182805460018160011615610100020316600290048015611ad65780601f10611aab57610100808354040283529160200191611ad6565b820191906000526020600020905b815481529060010190602001808311611ab957829003601f168201915b50505050508152602001600282018054600181600116156101000203166002900480601f016020809104026020016040519081016040528092919081815260200182805460018160011615610100020316600290048015611b785780601f10611b4d57610100808354040283529160200191611b78565b820191906000526020600020905b815481529060010190602001808311611b5b57829003601f168201915b50505050508152602001600382015481526020016004820160009054906101000a900473ffffffffffffffffffffffffffffffffffffffff1673ffffffffffffffffffffffffffffffffffffffff1673ffffffffffffffffffffffffffffffffffffffff168152602001600582015481526020016006820154815260200160078201548152602001600882018054600181600116156101000203166002900480601f016020809104026020016040519081016040528092919081815260200182805460018160011615610100020316600290048015611c985780601f10611c6d57610100808354040283529160200191611c98565b820191906000526020600020905b815481529060010190602001808311611c7b57829003601f168201915b50505050508152505090506000816080015190508073ffffffffffffffffffffffffffffffffffffffff166108fc349081150290604051600060405180830381858888f19350505050158015611cf2573d6000803e3d6000fd5b508160056000858152602001908152602001600020600082015181600001556020820151816001019080519060200190611d2d9291906122d1565b506040820151816002019080519060200190611d4a9291906122d1565b506060820151816003015560808201518160040160006101000a81548173ffffffffffffffffffffffffffffffffffffffff021916908373ffffffffffffffffffffffffffffffffffffffff16021790555060a0820151816005015560c0820151816006015560e08201518160070155610100820151816008019080519060200190611dd79291906122d1565b50905050600260008154809291906001019190505550611df561227e565b600660003373ffffffffffffffffffffffffffffffffffffffff1673ffffffffffffffffffffffffffffffffffffffff1681526020019081526020016000206040518060e001604052908160008201548152602001600182018054600181600116156101000203166002900480601f016020809104026020016040519081016040528092919081815260200182805460018160011615610100020316600290048015611ee25780601f10611eb757610100808354040283529160200191611ee2565b820191906000526020600020905b815481529060010190602001808311611ec557829003601f168201915b5050505050815260200160028201548152602001600382015481526020016004820160009054906101000a900473ffffffffffffffffffffffffffffffffffffffff1673ffffffffffffffffffffffffffffffffffffffff1673ffffffffffffffffffffffffffffffffffffffff168152602001600582015481526020016006820154815250509050604051806040016040528082815260200184815250600360006002548152602001908152602001600020600082015181600001600082015181600001556020820151816001019080519060200190611fc49291906122d1565b50604082015181600201556060820151816003015560808201518160040160006101000a81548173ffffffffffffffffffffffffffffffffffffffff021916908373ffffffffffffffffffffffffffffffffffffffff16021790555060a0820151816005015560c0820151816006015550506020820151816007016000820151816000015560208201518160010190805190602001906120659291906122d1565b5060408201518160020190805190602001906120829291906122d1565b506060820151816003015560808201518160040160006101000a81548173ffffffffffffffffffffffffffffffffffffffff021916908373ffffffffffffffffffffffffffffffffffffffff16021790555060a0820151816005015560c0820151816006015560e0820151816007015561010082015181600801908051906020019061210f9291906122d1565b505050905050336005600086815260200190815260200160002060040160006101000a81548173ffffffffffffffffffffffffffffffffffffffff021916908373ffffffffffffffffffffffffffffffffffffffff160217905550600660003373ffffffffffffffffffffffffffffffffffffffff1673ffffffffffffffffffffffffffffffffffffffff1681526020019081526020016000206003015460056000868152602001908152602001600020600601819055507f406015c17b3a3ac6d800b7c3bd8bb8b7f4767421aa1f9478a87b2606a05a19e26001548460200151856040015186606001513360405161220c959493929190612aaa565b60405180910390a150505050565b8060056000848152602001908152602001600020600301819055507f8aa4fa52648a6d15edce8a179c792c86f3719d0cc3c572cf90f91948f0f2cb688282604051612266929190612c23565b60405180910390a15050565b60015481565b60025481565b6040518060e0016040528060008152602001606081526020016000815260200160008152602001600073ffffffffffffffffffffffffffffffffffffffff16815260200160008152602001600081525090565b828054600181600116156101000203166002900490600052602060002090601f016020900481019282601f1061231257805160ff1916838001178555612340565b82800160010185558215612340579182015b8281111561233f578251825591602001919060010190612324565b5b50905061234d9190612482565b5090565b828054600181600116156101000203166002900490600052602060002090601f016020900481019282601f1061238a57805485556123c7565b828001600101855582156123c757600052602060002091601f016020900482015b828111156123c65782548255916001019190600101906123ab565b5b5090506123d49190612482565b5090565b50805460018160011615610100020316600290046000825580601f106123fe575061241d565b601f01602090049060005260206000209081019061241c9190612482565b5b50565b60405180610120016040528060008152602001606081526020016060815260200160008152602001600073ffffffffffffffffffffffffffffffffffffffff168152602001600081526020016000815260200160008152602001606081525090565b6124a491905b808211156124a0576000816000905550600101612488565b5090565b90565b6000813590506124b681612dc6565b92915050565b600082601f8301126124cd57600080fd5b81356124e06124db82612c79565b612c4c565b915080825260208301602083018583830111156124fc57600080fd5b612507838284612d73565b50505092915050565b60008135905061251f81612ddd565b92915050565b60006020828403121561253757600080fd5b6000612545848285016124a7565b91505092915050565b600080600080600060a0868803121561256657600080fd5b600086013567ffffffffffffffff81111561258057600080fd5b61258c888289016124bc565b955050602086013567ffffffffffffffff8111156125a957600080fd5b6125b5888289016124bc565b94505060406125c688828901612510565b93505060606125d788828901612510565b925050608086013567ffffffffffffffff8111156125f457600080fd5b612600888289016124bc565b9150509295509295909350565b6000806040838503121561262057600080fd5b600083013567ffffffffffffffff81111561263a57600080fd5b612646858286016124bc565b925050602061265785828601612510565b9150509250929050565b60006020828403121561267357600080fd5b600061268184828501612510565b91505092915050565b6000806040838503121561269d57600080fd5b60006126ab85828601612510565b92505060206126bc85828601612510565b9150509250929050565b6126cf81612d2b565b82525050565b6126de81612cef565b82525050565b6126ed81612cef565b82525050565b6126fc81612cdd565b82525050565b61270b81612cdd565b82525050565b61271a81612d3d565b82525050565b600061272b82612cb0565b6127358185612ccc565b9350612745818560208601612d82565b61274e81612db5565b840191505092915050565b600061276482612ca5565b61276e8185612cbb565b935061277e818560208601612d82565b61278781612db5565b840191505092915050565b600061279d82612ca5565b6127a78185612ccc565b93506127b7818560208601612d82565b6127c081612db5565b840191505092915050565b6000610120830160008301516127e4600086018261293a565b50602083015184820360208601526127fc8282612759565b915050604083015184820360408601526128168282612759565b915050606083015161282b606086018261293a565b50608083015161283e60808601826126d5565b5060a083015161285160a086018261293a565b5060c083015161286460c086018261293a565b5060e083015161287760e086018261293a565b506101008301518482036101008601526128918282612759565b9150508091505092915050565b600060e0830160008301516128b6600086018261293a565b50602083015184820360208601526128ce8282612759565b91505060408301516128e3604086018261293a565b5060608301516128f6606086018261293a565b50608083015161290960808601826126f3565b5060a083015161291c60a086018261293a565b5060c083015161292f60c086018261293a565b508091505092915050565b61294381612d21565b82525050565b61295281612d21565b82525050565b600060608201905061296d6000830186612702565b818103602083015261297f8185612792565b905061298e6040830184612949565b949350505050565b600060408201905081810360008301526129b0818561289e565b905081810360208301526129c481846127cb565b90509392505050565b60006020820190506129e26000830184612949565b92915050565b60006060820190506129fd6000830186612949565b8181036020830152612a0f8185612720565b9050612a1e60408301846126c6565b949350505050565b600060e082019050612a3b600083018a612949565b8181036020830152612a4d8189612720565b90508181036040830152612a618188612720565b9050612a706060830187612949565b612a7d60808301866126e4565b612a8a60a0830185612711565b81810360c0830152612a9c8184612720565b905098975050505050505050565b600060a082019050612abf6000830188612949565b8181036020830152612ad18187612792565b90508181036040830152612ae58186612792565b9050612af46060830185612949565b612b0160808301846126e4565b9695505050505050565b600061012082019050612b21600083018c612949565b8181036020830152612b33818b612792565b90508181036040830152612b47818a612792565b9050612b566060830189612949565b612b6360808301886126e4565b612b7060a0830187612949565b612b7d60c0830186612949565b612b8a60e0830185612949565b818103610100830152612b9d8184612792565b90509a9950505050505050505050565b600060e082019050612bc2600083018a612949565b8181036020830152612bd48189612792565b9050612be36040830188612949565b612bf06060830187612949565b612bfd6080830186612702565b612c0a60a0830185612949565b612c1760c0830184612949565b98975050505050505050565b6000604082019050612c386000830185612949565b612c456020830184612949565b9392505050565b6000604051905081810181811067ffffffffffffffff82111715612c6f57600080fd5b8060405250919050565b600067ffffffffffffffff821115612c9057600080fd5b601f19601f8301169050602081019050919050565b600081519050919050565b600081519050919050565b600082825260208201905092915050565b600082825260208201905092915050565b6000612ce882612d01565b9050919050565b6000612cfa82612d01565b9050919050565b600073ffffffffffffffffffffffffffffffffffffffff82169050919050565b6000819050919050565b6000612d3682612d4f565b9050919050565b6000612d4882612d21565b9050919050565b6000612d5a82612d61565b9050919050565b6000612d6c82612d01565b9050919050565b82818337600083830152505050565b60005b83811015612da0578082015181840152602081019050612d85565b83811115612daf576000848401525b50505050565b6000601f19601f8301169050919050565b612dcf81612cdd565b8114612dda57600080fd5b50565b612de681612d21565b8114612df157600080fd5b5056fea365627a7a72315820cfd79b2f12d255f9e70eb86bdc1c91db45c103763f2bea2e33766bdc10867aff6c6578706572696d656e74616cf564736f6c63430005100040",
  "source": "pragma solidity ^0.5.0;\r\npragma experimental ABIEncoderV2;\r\n\r\ncontract GiveNTake {\r\n  //string public name;\r\n  uint public usersCount = 0;\r\n  uint public cardsCount = 0;\r\n  uint public transactionsCount = 0;\r\n  \r\n\r\n  struct User {\r\n    uint id;\r\n    string name;\r\n    uint age;\r\n    uint rate;\r\n    address owner;\r\n    uint cardAmount;\r\n    uint ratingCount;\r\n  }\r\n\r\n  struct Card {\r\n        uint id;\r\n        string headline;\r\n        string content;\r\n        uint price;\r\n        address payable owner;\r\n        uint minAge;\r\n        uint ownerRate;  \r\n        uint isActive;\r\n        string imageHash;\r\n    }\r\n\r\n  struct Transaction {\r\n    User buyer;\r\n    Card card;\r\n  }\r\n\r\n  event UserAdded(\r\n    uint id,\r\n    string name,\r\n    address owner\r\n  );\r\n\r\n  event CardCreated(\r\n        uint id,\r\n        string headline,\r\n        string content,\r\n        uint price,\r\n        address payable owner,\r\n        uint isActive,\r\n        string imageHash\r\n    );\r\n\r\n  event CardBought(\r\n        uint id,\r\n        string headline,\r\n        string content,\r\n        uint price,\r\n        address payable owner\r\n    );\r\n\r\n  event UserRated(\r\n        address userAddress,\r\n        string name,\r\n        uint rate\r\n    );\r\n\r\n  event PriceChanged(\r\n    uint cardId,\r\n    uint newPrice\r\n  );\r\n\r\n    mapping (uint => Transaction) public transactions;\r\n    mapping(uint => User) public users;\r\n    mapping(uint => Card) public cards;\r\n    mapping (address => User) public usersByAddress;\r\n    \r\n\r\n  constructor() public {\r\n  \r\n  }\r\n\r\n  function addUser(string memory _name, uint age) public {\r\n \r\n    usersCount ++;\r\n    users[usersCount] = User(usersCount, _name, age, 0, msg.sender,0, 1); // times I rated start with 1 to work with mod3\r\n    usersByAddress[msg.sender] = users[usersCount];\r\n    emit UserAdded(usersCount, _name, msg.sender);\r\n  }\r\n\r\n  function postOffer(string memory _headline, string memory _content, uint minAge, uint _price, string memory _hash) public {\r\n        cardsCount ++;\r\n        User memory _owner = usersByAddress[msg.sender];\r\n        uint rate = _owner.rate;\r\n        cards[cardsCount] = Card(cardsCount, _headline, _content, _price, msg.sender, minAge, rate, 1, _hash);\r\n        User memory curr_user = usersByAddress[msg.sender];\r\n\r\n        emit CardCreated(cardsCount, _headline, _content, _price, msg.sender, 1, _hash);\r\n    }\r\n\r\n  function buyOffer(uint _cardId) public payable {\r\n        require(_cardId > 0 && _cardId <= cardsCount);\r\n\r\n        Card memory _card = cards[_cardId];\r\n        address payable _owner = _card.owner;\r\n        \r\n        _owner.transfer(msg.value);\r\n        cards[_cardId] = _card; \r\n        transactionsCount++;\r\n        User memory buyer = usersByAddress[msg.sender];\r\n        transactions[transactionsCount] = Transaction(buyer, _card);\r\n\r\n        // change ownership\r\n        cards[_cardId].owner = msg.sender;\r\n        cards[_cardId].ownerRate = usersByAddress[msg.sender].rate;\r\n        emit CardBought(cardsCount, _card.headline, _card.content, _card.price, msg.sender);\r\n\r\n    }\r\n  function rateSeller(address _sellerAddress) public {\r\n \r\n        usersByAddress[_sellerAddress].rate++;\r\n        User memory _user =  usersByAddress[_sellerAddress];\r\n        users[_user.id].rate++;   // update the user in the second array as well\r\n\r\n        // for each 5 times rating others, user earns a rate for himself\r\n        uint flag = 0;\r\n        User memory rater = usersByAddress[msg.sender];\r\n        if (rater.ratingCount % 3 == 0) {\r\n          rater.rate++;\r\n          flag = 1;\r\n        }\r\n        rater.ratingCount++;\r\n        usersByAddress[msg.sender] = rater;\r\n        users[rater.id] = rater;\r\n        \r\n        // update all their cards\r\n        uint i = 1;\r\n        for (i=1; i<=cardsCount; i++) {\r\n          if (cards[i].owner == _sellerAddress) {\r\n              cards[i].ownerRate++;\r\n          }\r\n          if (flag == 1 && cards[i].owner == msg.sender) {\r\n              cards[i].ownerRate++;\r\n          }\r\n        }\r\n\r\n        emit UserRated(_sellerAddress, _user.name, _user.rate);\r\n    }\r\n\r\n  function changePrice(uint cardId, uint newPrice) public {\r\n    cards[cardId].price = newPrice;\r\n\r\n    // this card might have other copies in transactions, but they were boght in a different price\r\n    // we don't change them\r\n    emit PriceChanged(cardId, newPrice);\r\n  }\r\n\r\n  function deleteCard(uint id) public {\r\n      Card storage toDelete = cards[id];\r\n      toDelete.isActive = 0;\r\n      delete cards[id];\r\n      cardsCount--;\r\n  }    \r\n\r\n}",
  "sourcePath": "C:\\Users\\sahar\\unevirsity\\blockchain\\src\\contracts\\GiveNTake.sol",
  "compiler": {
    "name": "solc",
    "version": "0.5.16+commit.9c3226ce.Emscripten.clang"
  },
  "schemaVersion": "3.4.3",
  "updatedAt": "2022-01-19T08:11:13.207Z",
  "networkType": "ethereum",
  "devdoc": {
    "methods": {}
  },
  "userdoc": {
    "methods": {}
  }
}